:020000040800F2
:100000005025002061020008831B00085D190008CC
:10001000811B0008F30400085921000800000000BB
:10002000000000000000000000000000C9010008FE
:100030007B050008000000000D020008911C00086C
:100040007B0200087B0200087B0200087B0200089C
:100050007B0200087B0200087B0200087B0200088C
:100060007B0200087B0200087B0200087B0200087C
:10007000210500082D050008390500084505000880
:100080007B0200087B0200087B0200087B0200085C
:100090007B0200087B0200087B0200087B0200084C
:1000A0007B0200081D1D00087B0200087B0200087F
:1000B0007B0200087B0200087B0200087B0200082C
:1000C0007B0200087B0200087B0200087B0200081C
:1000D0007B020008212100087B020008352100086E
:1000E0007B0200087B0200087B02000800F002F897
:1000F00000F05AF80AA090E8000C82448344AAF168
:100100000107DA4501D100F04FF8AFF2090EBAE865
:100110000F0013F0010F18BFFB1A43F0010318473B
:10012000703E0000903E00000A444FF0000C10F8B2
:10013000013B13F0070408BF10F8014B1D1108BF65
:1001400010F8015B641E05D010F8016B641E01F805
:10015000016BF9D113F0080F1EBF10F8014BAD1C55
:100160000C1B09D16D1E58BF01F801CBFAD505E073
:1001700014F8016B01F8016B6D1EF9D59142D6D3CD
:10018000704700000023002400250026103A28BFF5
:1001900078C1FBD8520728BF30C148BF0B607047F9
:1001A0001FB51FBD10B510BD00F069F91146FFF76E
:1001B000F7FF02F0AFFA00F087F903B4FFF7F2FFA0
:1001C00003BC00F08FF90000224B19680868B0E802
:1001D000F00F80F30988BFF36F8F4FF0000080F3BA
:1001E00011884EF00D0E70470000000006480068B0
:1001F000006880F3088862B661B6BFF34F8FBFF323
:100200006F8F00DF00BF00BF08ED00E0EFF3098053
:10021000BFF36F8F0F4B1A6820E9F00F106008B51D
:100220004FF0500080F31188BFF34F8FBFF36F8FF3
:1002300003F04EF94FF0000080F31188BDE808404C
:1002400019680868B0E8F00F80F30988BFF36F8F72
:10025000704700BFBC020020EFF30580704700002C
:100260000948804709480047FEE7FEE7FEE7FEE74A
:10027000FEE7FEE7FEE7FEE7FEE7FEE70448054986
:10028000054A064B704700001B1D0008ED000008E2
:10029000501F002050250020502100205021002018
:1002A00040EA010310B59B070FD1042A0DD310C8F3
:1002B00008C9121F9C42F8D020BA19BA884201D945
:1002C000012010BD4FF0FF3010BD1AB1D30703D08D
:1002D000521C07E0002010BD10F8013B11F8014B43
:1002E0001B1B07D110F8013B11F8014B1B1B01D15F
:1002F000921EF1D1184610BD032A40F2308010F052
:10030000030C00F0158011F8013BBCF1020F6244B0
:1003100098BF11F801CB00F8013B38BF11F8013B41
:10032000A2F1040298BF00F801CB38BF00F8013BEE
:1003300011F0030300F02580083AC0F0088051F85E
:10034000043B083A51F804CBA0E80810F5E7121D69
:100350005CBF51F8043B40F8043BAFF30080D20788
:1003600024BF11F8013B11F801CB48BF11F8012B54
:1003700024BF00F8013B00F801CB48BF00F8012B77
:10038000704710B5203AC0F00B80B1E81850203A01
:10039000A0E81850B1E81850A0E81850BFF4F5AF25
:1003A0005FEA027C24BFB1E81850A0E8185044BFAF
:1003B00018C918C0BDE810405FEA827C24BF51F81C
:1003C000043B40F8043B08BF7047D20728BF31F810
:1003D000023B48BF11F8012B28BF20F8023B48BF61
:1003E00000F8012B70474FF000020429C0F0128082
:1003F00010F0030C00F01B80CCF1040CBCF1020FD8
:1004000018BF00F8012BA8BF20F8022BA1EB0C01AC
:1004100000F00DB85FEAC17C24BF00F8012B00F8A2
:10042000012B48BF00F8012B70474FF0000200B5C8
:10043000134694469646203922BFA0E80C50A0E807
:100440000C50B1F12001BFF4F7AF090728BFA0E8B5
:100450000C5048BF0CC05DF804EB890028BF40F881
:10046000042B08BF704748BF20F8022B11F0804FC3
:1004700018BF00F8012B70477047704770477546EA
:1004800000F02CF8AE4605006946534620F0070000
:10049000854618B020B5FFF7F1FEBDE820404FF0CB
:1004A00000064FF000074FF000084FF0000B21F05E
:1004B0000701AC46ACE8C009ACE8C009ACE8C0092B
:1004C000ACE8C0098D46704710B50446AFF3008014
:1004D0002046BDE81040FFF770BE0000004870479E
:1004E000F01E002001491820ABBEFEE726000200E6
:1004F0007047FEE770B5094DFF231A4605F5807673
:1005000006E000BF10F8014B54402A5D5A40335DAD
:10051000491EC9B2F6D242EA032070BD7D00002018
:10052000014800F0C1B800004C100020014800F064
:10053000BBB8000008100020014800F0B5B800006A
:10054000C40F0020014800F0AFB80000800F002069
:1005500030B590F840500124AC40C56B6C60046825
:1005600063604368102B036803D099600068C26021
:1005700030BD9A600068C16030BD704701490120FC
:1005800008707047860200200149012008707047FA
:10059000870200200149012008707047880200206E
:1005A000014901200870704789020020014901209B
:1005B000087070478A0200200149012008707047C6
:1005C0008B02002072B6FEE710B590F821100022D1
:1005D000022905D00421816380F82020012010BD6C
:1005E00001680B6823F00E030B6001680B6823F0B1
:1005F00001030B6090F84030C46B012101FA03F352
:10060000636080F8211080F82020104610BD0000A3
:1006100010B590F821100024022903D00421816331
:1006200001243DE001680A6822F00E020A600168B8
:100630000A6822F001020A601A4A0168914201D157
:10064000012121E0174A1432914201D110211BE00F
:10065000144A2832914201D1891515E0114A3C32E1
:10066000914201D189140FE00E4A5032914202D1D9
:100670004FF4803108E00B4A6432914202D14FF4CA
:10068000801101E04FF08071064A083A5160012163
:1006900080F82110002180F82010416B01B18847BB
:1006A000204610BD080002402DE9F05FC16B0C68C8
:1006B00001680B68D0F840C0042202FA0CF2494DE0
:1006C000DFF824A1494E4A4FDFF828B1DFF828E1CE
:1006D00022422CD05A072AD50A68920603D40A6807
:1006E00022F004020A600168A94201D1042219E043
:1006F000514501D1402215E0B14202D14FF4806250
:1007000010E0B94202D14FF480420BE0594502D1CA
:100710004FF4802206E0714502D14FF4800201E0DF
:100720004FF080622F4908394A60C16A3BE04FF0C0
:10073000020808FA0CF818EA040F4FF000094FF00D
:10074000010235D05FEA837832D50B689B0605D469
:100750000B6823F00A030B6080F821200168A9428E
:1007600001D1022219E0514501D1202215E0B14208
:1007700002D14FF4007210E0B94202D14FF400529E
:100780000BE0594502D14FF4003206E0714502D129
:100790004FF4001201E04FF00072124908394A602C
:1007A00080F82090816A00291AD0BDE8F05F0847E0
:1007B000082505FA0CF5254212D01B0710D50B6849
:1007C00023F00E030B6090F84010C36B02FA01F1A6
:1007D0005960826380F8212080F82090016BE2E765
:1007E000BDE8F09F080002401C00024030000240BB
:1007F00044000240580002406C00024030B528B36B
:1008000008C8134914221944B1FBF2F18900C163ED
:1008100010498163022141771A6843F6F0718A43D7
:10082000D0E900142143D0E902452C432143046957
:100830002143446921438469214311431960002104
:100840004163012242770177084630BD012030BD67
:10085000F8FFFDBF0000024070B5044690F820008C
:10086000002501280CD0012084F8200094F8216094
:100870000020012E06D084F820000225284670BDF5
:10088000022070BD022684F82160A06320680668FB
:1008900026F0010606602046FFF75AFEE06A0028AF
:1008A0002068016802D041F00E0106E021F0040149
:1008B00001602068016841F00A0101602068016858
:1008C00041F001010160D9E770B5044600F004F978
:1008D0000546601C02D004480078044400F0FCF88F
:1008E000401BA042FAD370BDAC0200202DE9F84FA6
:1008F000DFF8B891002409F1040A0AF1040B234639
:100900000F270BF1040EC9E00125A5402A40AA4299
:100910007DD1674ED1F804C0ACEB0608B44532D0A7
:1009200014DCBCF1030F3AD009DCBCF1000F2AD073
:10093000BCF1010F1CD0BCF1020F31D11DE0BCF1A4
:10094000110F17D0BCF1120F2AD119E0B8F5881F8A
:1009500019D006DCB8F5803F15D0B8F5801F1FD13F
:1009600011E0B8F5001F0ED0B8F5041F18D10AE049
:10097000CB6815E0CB681B1D12E0CB6808330FE095
:10098000CB680C330CE08B682BB1012B4FF00803C4
:1009900003D0456104E0042302E0056100E0002388
:1009A000FF2A01D8064601E000F104064FEA84055B
:1009B00001D9A5F12005D6F8008007FA05FC28EA40
:1009C0000C0803FA05F548EA0508C6F800804D68EA
:1009D000ED0062D5374DAE6946F00106AE61AD69F6
:1009E00024F0030605F001050095334D06EB050CD8
:1009F000DCF80850A607360F07FA06F825EA0805BE
:100A0000DFF8B880404503D14FF0000817E044E01C
:100A1000DFF8AC80404502D14FF001080FE0DFF86D
:100A2000A480404502D14FF0020808E0DFF898802A
:100A3000404502D14FF0030801E04FF0040808FAE6
:100A400006F848EA0508CCF808804D68D9F8006037
:100A5000ED034D4601D5164300E096432E604D68E8
:100A6000DAF80060AD03554601D5164300E0964321
:100A70002E604D68DBF80060ED025D4601D516433F
:100A800000E096432E604D68DEF80060AD027546CA
:100A900001D5164300E096432E60641C0D682A467B
:100AA000E5407FF431AFBDE8F88F0000000401405D
:100AB0000000111000100240000001400008014039
:100AC000000C014000100140001401400AB1016116
:100AD00070470904FBE70000014880687047000088
:100AE000AC0200200248816802781144816070479E
:100AF000AC020020074810B5016841F01001016008
:100B0000032000F095F80F2000F006F800F03EF802
:100B1000002010BD0020024000B5014687B0002231
:100B2000192000F065F8192000F054F81348816985
:100B300041F400618161806905A900F400600690BC
:100B4000684600F01DF900F04BF90D490D4AB0FB65
:100B5000F1F10D48491E0260416040F2E732002188
:100B6000C0E90321816000F013FB10B1012007B040
:100B700000BD054800F03AFBF9E700000010024014
:100B800040420F00002C0140901000200F4808B593
:100B9000816941F001018161816901F001010091E8
:100BA000C16941F08051C161C069002200F08050EC
:100BB00000900F21901E00F01BF80548416821F0BD
:100BC000E06141F08071416008BD0000001002400A
:100BD00000000140002809DB00F01F0201219140C4
:100BE0004009800000F1E020C0F8001170470000CB
:100BF000F0B40E4B1B680C46C3F30223C3F1070588
:100C0000042D00D90425191D072901D2002300E075
:100C1000DB1E012606FA05F1491E214099409E403F
:100C2000761E16403143F0BC01F097BA0CED00E09F
:100C3000064900F0070208684FF6FF03184040EA33
:100C40000220034A10430860704700000CED00E0EA
:100C50000000FA052DE9F0470F46050061D0434E2C
:100C6000306800F00700B84209D2306820F0070071
:100C700038433060306800F00700B84251D128682E
:100C80003B4C810712D5400703D5606840F4E06013
:100C900060602878000703D5606840F460506060A9
:100CA0006068A96820F0F000084360602878C007F9
:100CB00028D06868012810D02168022810D0890740
:100CC00000292EDA616821F0030101436160FFF71A
:100CD00003FF804641F288390DE021688903EFE780
:100CE0008901EDE7FFF7F8FEA0EB0801494502D9BD
:100CF0000320BDE8F0876068696800F00C00B0EB85
:100D0000810FEFD1306800F00700B8420BD930688E
:100D100020F0070038433060306800F00700B84228
:100D200001D00120E5E72878400705D56068E9682B
:100D300020F4E060084360602878000706D560680A
:100D4000296920F4605040EAC100606000F058F862
:100D50006168084AC1F30311515CC8400649086044
:100D600006480068FFF7D8FE0020C2E700200240D6
:100D7000001002406C3F0008B8020020B0020020C2
:100D80000F2202600C4A536803F003034360536868
:100D900003F0F0038360536803F4E063C3605268B8
:100DA0004FF4E06303EAD20202610448006800F0F5
:100DB0000700086070470000001002400020024059
:100DC0000448054900684968044AC1F30221515C9E
:100DD000C8407047B8020020001002407C3F000865
:100DE0000448054900684968044AC1F3C221515CBE
:100DF000C8407047B8020020001002407C3F000845
:100E000012A185B00FC98DE80F0014A0144A006824
:100E100004905168134801F00C03042B10D0082BE8
:100E20000ED1C1F38343C9031DF803000AD55168ED
:100E300004AAC1F34041515C0A4A5043B0FBF1F0AF
:100E400005B0704708494843FAE70000020304056B
:100E5000060708090A0B0C0D0E0F10100102000006
:100E60000010024000127A0000093D002DE9F84F01
:100E7000040070D02078C04DC00749D06868C0F326
:100E80008100012807D06868C0F38100022809D1D9
:100E90006868C00306D52868800339D560680028D3
:100EA000E7D035E06068B0F5803F0BD010B1B0F509
:100EB000A02F11D0286820F480302860286820F402
:100EC000802002E0286840F480302860606890B19B
:100ED000FFF702FE06460AE0286840F480202860FA
:100EE000F0E700BFFFF7F8FD801B642873D828687F
:100EF0008003F7D50CE0FFF7EFFD064605E000BFE5
:100F0000FFF7EAFD801B6428F0D828688003F7D437
:100F100020789A4E80074FF001094FF0000839D52C
:100F2000686810F00C0F07D06868C0F381000228D1
:100F300009D16868C00306D42868800714D52069E1
:100F4000012808D110E02069B0B1C6F80090FFF781
:100F5000C3FD074605E00AE1FFF7BEFDC01B0228FE
:100F6000C4D828688007F7D52868616920F0F800A0
:100F700040EAC10028600DE0C6F80080FFF7ACFD34
:100F8000074604E0FFF7A8FDC01B022823D8286805
:100F90008007F7D4207800072CD57948A169D9B10A
:100FA000C0F80090FFF798FD074604E0FFF794FDB6
:100FB000C01B02280FD8686A8007F7D571484FF424
:100FC000FA510068B0FBF1F0009000BF0098411E9C
:100FD0000091FAD20EE080E0C0F80080FFF77CFDBF
:100FE000074604E0FFF778FDC01B022875D8686A41
:100FF0008007F7D42078400760D5E8690027C00053
:1010000008D4E86940F08050E861E869012700F001
:10101000805000905C480168C90513D4016883467C
:1010200041F480710160FFF757FD824606E000BF82
:10103000FFF752FDA0EB0A0064284ED8DBF8000051
:10104000C005F5D5E06801280AD008B1052813D0FD
:10105000286A20F001002862286A20F0040002E0DB
:10106000286A40F001002862E06841F2883B98B1AC
:10107000FFF732FD82460BE0286A40F00400286248
:10108000EEE700BFFFF728FDA0EB0A0159455AD84B
:10109000286A8007F6D50CE0FFF71EFD824605E0C2
:1010A000FFF71AFDA0EB0A0159454CD8286A8007C2
:1010B000F6D41FB1E86920F08050E861E06988B398
:1010C0006968C1F38101022944D00228C6F8608012
:1010D00004D0FFF701FD044638E034E0FFF7FCFCE4
:1010E000074604E0FFF7F8FCC01B02282BD828684D
:1010F0008001F7D4206AB0F5803F05D16868A16807
:1011000020F4003008436860D4E9080108436968A6
:1011100021F4741108436860C6F86090FFF7DCFCA6
:10112000044606E025E000BFFFF7D6FC001B0228BE
:1011300009D828688001F7D51BE000BFFFF7CCFC79
:10114000001B022802D90320BDE8F88F286880011F
:10115000F4D40EE00128F7D06868226A00F48031E8
:10116000914204D1616A00F47010884201D00120DC
:10117000EAE70020E8E700000010024000004242D9
:1011800080044242B802002000700040704770475F
:1011900010B5040003D094F83D0010B107E0012021
:1011A00010BD002084F83C00204600F01EF802200C
:1011B00084F83D00211D206800F0B6FD012084F870
:1011C000460084F83E0084F83F0084F8400084F82C
:1011D000410084F8420084F8430084F8440084F815
:1011E000450084F83D00002010BD704790F83D1088
:1011F000012901D001207047022180F83D100168CB
:10120000CA6842F00102CA6000680B49884208D0EF
:10121000B0F1804F05D00949884202D00849884280
:1012200004D1816801F00701062903D0016841F06B
:101230000101016000207047002C014000040040C3
:1012400000080040704770B50446006801694FF01F
:101250000005C943890715D4C168C943890711D45A
:10126000E91E0161012020772068806980072046FF
:1012700002D0FFF7E7FF04E000F098F8204600F006
:1012800096F8257720680169C943490717D4C168D2
:10129000C943490713D46FF004010161022020778C
:1012A0002068806910F4407F204602D0FFF7CAFF13
:1012B00004E000F07BF8204600F079F825772068FC
:1012C0000169C943090716D4C168C943090712D483
:1012D0006FF008010161042020772068C069800751
:1012E000204602D0FFF7AEFF04E000F05FF8204692
:1012F00000F05DF8257720680169C943C90617D455
:10130000C168C943C90613D46FF0100101610820F8
:1013100020772068C06910F4407F204602D0FFF794
:1013200091FF04E000F042F8204600F040F82577F5
:1013300020680169C943C90708D1C168C943C90701
:1013400004D1891E0161204600F032F8206801694D
:10135000C943090609D4C168C943090605D46FF019
:10136000800101612046FFF711FF20680169C94330
:10137000490609D4C168C943490605D46FF0400144
:101380000161204600F01EF820680169C943890602
:101390000BD4C168C943890607D46FF020010161ED
:1013A0002046BDE87040FFF7F2BE70BD7047704741
:1013B00000680349884201D1FFF794BB70470000E1
:1013C000002C01407047704710B504460068416921
:1013D00094F83D20C1F3C011212A0BD151B14169CC
:1013E00021F080014161606B08B1FFF7EDF8204604
:1013F00000F04FFD2068416994F83E20C1F3801150
:10140000222A0BD151B1416921F040014161A06B09
:1014100008B1FFF7D9F8204600F023FD002010BDE9
:1014200070470000F8B5026804461068D168536937
:1014300010F00F0F4FF0000553D003F0010601F438
:10144000907737435FD0C20705D0CA0503D5226C19
:1014500042F001022264420705D5DA0703D0226C6C
:1014600042F002022264820705D5DA0703D0226C1B
:1014700042F004022264020707D501F02002324341
:1014800003D0226C42F008022264226C002A34D07D
:10149000800604D5880602D5204600F003FD2068AA
:1014A0004069216CC0F38010090700D430B3204696
:1014B00000F0D7FC2068416949061BD5416921F03D
:1014C00040014161A06BA8B158494163A06BFFF78F
:1014D0009FF8002811D0A06B416B01B0BDE8F0402F
:1014E000084783060FD58B060DD52046BDE8F8408A
:1014F00000F0D8BC2046FFF793FFF8BD2046FFF769
:101500008FFF2564F8BD266B2023012E52D1C6061D
:1015100050D5CE064ED510685068009050694006F0
:101520002AD5A16B086840680004000CEAD0A68D9B
:101530008642E7D9E0858869202818D0D06820F451
:101540008070D0602068416921F00101416120680C
:10155000416921F04001416184F83E3025632068F3
:10156000C16821F01001C160A06BFFF72DF8A08DBC
:10157000E18D401A81B219E0A08DE18D401A81B24F
:10158000E08D0028BED00029BCD0D06820F4907037
:10159000D0602068426922F00102426184F83E3046
:1015A00025632068C26822F01002C2602046FFF75F
:1015B0000AFFF8BD05062BD50D0629D594F83D0088
:1015C0002128F6D1A068B0F5805F01D12069B0B1C3
:1015D000206A411C2162216800784860E08C401E2E
:1015E0000004000CE084E4D12068C16821F080018F
:1015F000C1602068C16841F04001C160F8BD206A47
:101600000088C0F308005060206A801C2062E5E773
:101610004006F3D54806F1D5D168204621F04001B7
:10162000D16084F83D3000F098F9F8BD951D0008B0
:1016300070B5040004D094F83D00002510B106E018
:10164000012070BD84F83C50204600F023F824208F
:1016500084F83D002068C16821F40051C160204633
:1016600000F07CFC2068016921F490410161206850
:10167000416921F02A0141612068C16841F40051AB
:10168000C1602564202084F83D0084F83E000020DD
:1016900070BD00002DE9F04385B00025009501954F
:1016A00002950395044602685848574B02210715D6
:1016B00080264FF010089A424ED1826942F480424F
:1016C0008261826902F480420492826942F00402DB
:1016D00082618069DFF8389100F00400049008020C
:1016E000CDE900010320039069464846FFF7FEF864
:1016F000CDE90075694648460295FFF7F7F8464F71
:101700004448C7E90005C7E902563D617D61BD61F6
:101710003846FD61FFF772F808B1FEF753FFA76383
:101720007C623D4F3B4844371438C7E902563D615F
:101730007D61BD61FD61C7E900083846FFF75EF8CD
:1017400008B1FEF73FFF67630022052125207C6278
:10175000FFF74EFA252052E0304B9A4251D1C26930
:1017600042F48022C261C26902F48022049282693A
:1017700042F0080282618069CDE9007100F0080042
:10178000CDE90310264F69463846FFF7AFF8F81445
:10179000CDE90005694638460295FFF7A7F81E4FC8
:1017A0001C4888372838C7E90005C7E902563D615B
:1017B0004FF440507D61C7E906503846FFF71EF8E8
:1017C00008B1FEF7FFFEA7637C62134F1148CC37C8
:1017D0003C38C7E902563D617D61BD61FD61C7E9E5
:1017E00000083846FFF70AF808B1FEF7EBFE67631A
:1017F0000022052127207C62FFF7FAF92720FFF756
:10180000E9F905B0BDE8F08300380140001002405E
:101810000008014058000240800F002000480040AE
:10182000000C014090F83E30202B0ED159B152B13E
:1018300090F83C30012B08D0012380F83C30002385
:10184000036300F0E7BB012070470220704790F867
:101850003E30202B0ED159B152B190F83C30012BC3
:1018600008D0012380F83C300023036300F00ABC59
:10187000012070470220704710B500680649884271
:1018800008D100F0B1F9BDE8104006220349044830
:10189000FFF7DDBF10BD00000048004052040020EB
:1018A0003C0F0020704700002DE9F843044690F8F3
:1018B0003D001F4616460D4620284CD1C5B1BEB18D
:1018C00094F83C00012846D0012084F83C004FF0F9
:1018D0000008C4F84080212084F83D00FFF7FCF8A0
:1018E000A6848146E684A068B0F5805F03D004E05A
:1018F0000120BDE8F883206928B12E465FF000057D
:1019000084F83C800EE00026FAE78021204600F0B3
:10191000D4FBA0B9AEB116F8010B21684860E08C89
:10192000401EE084E08C4B464FF0000200970028F8
:10193000EBD14FF04001204600F0BFFB30B1032057
:10194000D7E735F8020BC0F30800E6E7202084F85B
:101950003D000020CDE70220CBE77047FEE770474F
:1019600000F0B2BE7FB509240D4D00260D222C706B
:101970000B496846FEF7C0FC0B216846FEF7BAFD2E
:10198000E8722E730D2206496846FEF7B5FC0D215C
:10199000684600F051F9641CE4B2102CE6D97FBD12
:1019A00026000020154808B5416941F00101416158
:1019B0004069002200F00100009006210C20FFF792
:1019C00017F90C20FFF706F9002206210D20FFF77A
:1019D0000FF90D20FFF7FEF8002206210E20FFF779
:1019E00007F90E20FFF7F6F8002206210F20FFF777
:1019F000FFF8BDE808400F20FFF7ECB800100240E8
:101A000030B5264D93B00022D5E90001CDE907019C
:101A1000114607A800F0F4FE214C00226060D5E9D1
:101A20000201CDE90901114609A800F0E9FEA06014
:101A3000D5E90401CDE90B01002211460BA800F005
:101A4000DFFEE060D5E90601CDE90D010022114677
:101A50000DA800F0D5FE2061D5E90801CDE90F0100
:101A6000002211460FA800F0CBFE6061D5E90A0103
:101A7000CDE911010022114611A800F0C1FEA061BC
:101A80001C2205F130016846FEF77BFC0021684608
:101A900000F08CFE206013B030BD0000203F000835
:101AA0009002002030B585B00024174800940194BE
:101AB00002940394816941F020018161816901F000
:101AC00020010491816941F008018161816901F07F
:101AD00008010491816941F00401816180690B4D25
:101AE00000F004000490002203212846FEF7EEFFD8
:101AF00003210120CDE90010CDE9024169462846C5
:101B0000FEF7F4FE05B030BD00100240000C0140AD
:101B10000C4810B50A4901604FF41651416000218C
:101B200081600C22C160C0E904128161C161FFF7CC
:101B30007FFD002803D0BDE81040FEF743BD10BD77
:101B400000380140F80E00200C4810B50A49016029
:101B50004FF416514160002181600C22C160C0E940
:101B600004128161C161FFF763FD002803D0BDE865
:101B70001040FEF727BD10BD004800403C0F00207C
:101B8000FEE7FEE738B5104800680168C943C9069A
:101B900019D401680025406800900B48FFF714FC39
:101BA0000A48006840680A4CC0F1FF00C1B22170C9
:101BB000084800F0E3FA2570BDE83840FF220549E7
:101BC0000148FFF72FBE38BDF80E0020800F00201F
:101BD0008D020020510500200A460146FF230148DE
:101BE000FFF762BEF80E002038B50F4800680168A4
:101BF000C943C90612D401680025406800900A480C
:101C0000FFF7E2FB094800684068094CC0F1FF009B
:101C1000C1B22170074800F087FB2570BDE838404D
:101C20000621044800F080BB3C0F00200810002073
:101C30008C0200205204002070B50C46054600F0CE
:101C400053FD0520FEF740FEFF23224629460548A6
:101C5000FFF72AFE00F038FDBDE870400520FEF7D2
:101C600033BE00003C0F0020034610B500200246A2
:101C700004E09C5C521C204480B2D2B28A42F8D369
:101C800010BD00F027FC012000F084FDF9E7000002
:101C900010B5502080F31188BFF34F8FBFF36F8FC3
:101CA00001F060FF18B104494FF080500860002037
:101CB00080F3118810BD000004ED00E030B58FB056
:101CC00028216846FEF7B1FB14210AA8FEF7ADFBF8
:101CD00001210804CDE9001000240294022504919A
:101CE000CDE907504FF4E01009906846FFF7BEF8C1
:101CF00008B172B6FEE70F20CDE90A054FF4806007
:101D0000CDE90C4002210AA80E94FEF7A3FF00289B
:101D100001D072B6FEE70FB030BD70470148FFF743
:101D200092BA000090100020F0B50268164B174CD4
:101D3000174D4FF08047984205D0B84203D0A042DB
:101D400001D0A84203D122F070064A68324398427B
:101D500005D0B84203D0A04201D0A84203D122F45A
:101D60004074CA6822434C6922F080022243026018
:101D70008A68C2620A688262984201D10969016375
:101D800001214161F0BD0000002C01400004004031
:101D90000008004010B5406A0021C185C184FFF7EA
:101DA0003FFB10BD70B5446A2068406994F83D104F
:101DB000C0F3C0100025212904D118B1E5842046C4
:101DC00000F067F82068406994F83E10C0F3801076
:101DD000222904D118B1E585204600F042F8206C94
:101DE00040F0100020642046FFF71AFB70BD10B5CC
:101DF0000146406A0968096889061BD40021C1852B
:101E00000168CA6822F48072CA6001684A6922F0D7
:101E100001024A6101684A6922F040024A612021B8
:101E200080F83E10016B012904D10168CA6822F0D4
:101E30001002CA60016B012902D0FFF71DFD10BD21
:101E4000818DFFF7C0FA10BD10B5406A016B012902
:101E500002D0FFF727FD10BD818D4908FFF7B3FAC7
:101E600010BD0168CA6822F49072CA6001684A69AC
:101E700022F001024A61016B012904D10168CA689C
:101E800022F01002CA60202180F83E100021016378
:101E900070470168CA6822F0C002CA60202180F839
:101EA0003D10704708B590F83E10222901D002205D
:101EB00008BD82684FF480539A4201D1016921B173
:101EC000816A9A421BD04AB10AE00268816A52686C
:101ED000C2F308020A80816A891C08E0026972B1B3
:101EE0000268526802F07F020A70816A491C8162AE
:101EF000C18D491E0904090CC18503D019E002688F
:101F00005268F1E70168CA6822F02002CA600168DD
:101F1000CA6822F48072CA6001684A6922F001022C
:101F20004A61202180F83E10016B012903D0FFF7A0
:101F3000A3FC002008BD002101630168CA6822F0EB
:101F40001002CA6001680A68D20602D50A684968A8
:101F50000091818DFFF737FAEBE7000070B504467A
:101F600000680169E26821F440511143016121696F
:101F7000A0680843616908432168CA6841F20C639C
:101F80009A430243CA6020684169A26921F4407102
:101F9000114341611E492068884202D1FEF720FFAB
:101FA00001E0FEF70DFF00EBC00101EB00126068DD
:101FB00064218000B2FBF0F3B3FBF1F36FF018067D
:101FC0007343B2FBF0F5B2FBF0F605EB8305322369
:101FD00003EB0515B5FBF1F5B6FBF1F605F0F005E1
:101FE00005EB0615B2FBF0F6B2FBF0F0B0FBF1F03A
:101FF0006FF01802504306EB800003EB0010B0FBBB
:10200000F1F0216800F00F002844886070BD0000E6
:102010000038014038B581628285002513460446A8
:102020000564222084F83E00A26B13489062A26BE4
:102030001248D062A26B12481063A06B0A46456337
:102040002168A06B091DFEF707FC20680168416844
:10205000009184F83C50C16841F48071C1602068EF
:10206000416941F0010141612068416941F040014D
:102070004161002038BD0000EF1D0008491E000826
:10208000A51D000881628285C2850021016422228B
:1020900080F83E2080F83C100168CA6842F48072E3
:1020A000CA6001684A6942F001024A610068C16879
:1020B00041F02001C160002070472DE9F0419846B1
:1020C00017460E460446069D1DE0681C1BD02DB128
:1020D000FEF702FDA0EB0800A84214D92068C168F1
:1020E00021F4D071C1602068416921F00101416192
:1020F000202084F83D0084F83E00002084F83C0055
:102100000320BDE8F0812068006836EA000004D0B2
:102110000020B842D9D00020F3E70120F9E7000001
:1021200010B5FFF72FFDBDE810400148FFF77AB961
:10213000F80E002010B5FFF757FD0548FFF772F9BC
:10214000BDE81040FF2203490148FFF76BBB0000C8
:102150003C0F002052040020FEE70907090E00286A
:1021600004DB00F1E02080F80014704700F00F005D
:1021700000F1E02080F8141D704700002DE9FC5F9D
:102180005D4E4FF005080D294CD00C2948D10A4668
:1021900001465A48FEF7B0F8584800255849427A97
:1021A000584F594C4FF4807B012A53D0022A5AD001
:1021B000032A74D0062A33D1544C8046C07920704B
:1021C0008946084621880180A178817003214C4806
:1021D000FFF74AFDBA46074659464948FEF703F954
:1021E000E770380A2071CAF8005098F80700484C88
:1021F000093020702168C9F80010A188A9F80410DE
:1022000006213F48FEF776F9074659463C48FEF757
:10221000EAF8A771380AE0710720CAF80050307058
:10222000BDE8FC9F0A4601463A48FEF765F8394882
:10223000417A0529F4D1384CC0790421207011204D
:10224000E070206800906846FFF70EFD2071000ADC
:10225000607105E0C0794FF001080930207007E097
:1022600086F80080DCE7C0794FF002080930207062
:1022700084F8058020680860A088888006212048AE
:10228000FEF738F9B946074659461D48FEF7ABF840
:10229000A771380AE071C9F80050E1E7FFE76079FB
:1022A0001E4F1F4D0326012802D0022810D01AE02D
:1022B00008221A491448FDF7F3FF20B120780938A5
:1022C000E87108200EE038780938E871AE720AE04B
:1022D000082212490C48FDF7E3FF38B1207809388D
:1022E000E8710920A8720F48067099E73878093814
:1022F000E87185F80A80F6E7850200204603002091
:1023000052030020800200204C0000201900002011
:102310001E000020300300200D000020750000206A
:102320003F000020840200202DE9F04706460929DD
:102330004AD83078564DDFF85C810027564C401E55
:102340004FF0020A4FF0010908285FD206291CD07D
:10235000072939D13068C8F80000B088A8F804000F
:10236000B07988F8060005213046FFF77DFC98F823
:10237000051098F8062001EB0221884240D198F818
:102380000300642830D070B338E00A463146434831
:10239000FDF7B2FF414C424905272078C871072854
:1023A00012D2DFE800F0110413181A1C1E003D4879
:1023B0000DE004213046FFF757FC2179627901EBEB
:1023C0000221884200D12F70BDE8F087364800789E
:1023D0000028EED0F8E73548F9E73548F7E7354803
:1023E000F5E73548F3E706E098F80400642805D1DE
:1023F00084F80A9004E098F8040028B184F80AA050
:102400002E4908200870DFE7A772F9E708291AD0DB
:102410002B483168016071684160317A017201783E
:10242000A1F10902E271C278FF2A22D0E272027998
:102430002273227BE37A02EB0322224B9A421BDDBA
:1024400084F8109019E0204831680160716841609B
:102450001E491F480A78093AC27149794172012917
:1024600004D00229B0D185F800A0ADE785F800902E
:10247000AAE7E7722773DCE7277440780328A3D123
:1024800098F80000093081429ED1062028709BE711
:10249000840200206E00002054000020680000200C
:1024A0000000002086020020870200208802002011
:1024B000890200208A0200208B0200208502002071
:1024C0003D030020400D0300750000204C0000205B
:1024D000330000202DE9FC41534C544E0025207858
:1024E00009282BD2DFE800F02A15152A2A052A210F
:1024F00034004F48016831608088B08006214B4825
:10250000FFF79AFB6420FEF7DFF9257000F0B2F8C0
:1025100014E0484801683160406870600821434811
:10252000FFF78AFB2570642006E0434801683160AC
:1025300000793071052111E0FEF7C6F93F4C207893
:10254000072839D2DFE800F03813132438102B00A5
:102550003B48016831604068706008213348FFF7EC
:102560006BFB25703220E7E70D22364912E0374930
:1025700035480A6802604A684260896881600C21B7
:102580003148FFF729FB6420FEF79EF9257013E020
:102590002F490D222C48FDF7AFFE0D21F0E7142244
:1025A0002C492948FDF7A8FE14212748FFF714FB02
:1025B00025703220FEF788F9274F284C387808B16B
:1025C000012003E0264F3878C0B102202070206837
:1025D000009004216846FFF747FB2071000A6071F4
:1025E00020683060A088B08006211048FFF724FBE7
:1025F0003220FEF769F93D70BDE8FC81194F38784B
:1026000008B10320E2E7184F387808B10420DDE76D
:10261000164F387808B10520D8E7154F38780028CC
:10262000EAD00620D2E700008502002050060020F4
:102630000D0000204C000020190000208402002022
:102640001E000020000000204F0700203300002063
:102650003F000020540000208602002013000020CC
:102660008702002088020020890200208A020020C0
:102670008B0200200D4844F620610078072813D211
:10268000DFE800F0120406080A0C0E00084808E013
:10269000084806E0084804E0084802E0084800E06E
:1026A0000848006800F0CCB8704700000D0000201A
:1026B00094020020980200209C020020A00200202A
:1026C000A4020020A802002010B5064C002201211F
:1026D0002046FEF7FBF920460022BDE8104002210B
:1026E000FEF7F4B9000C014010B5064C012211466A
:1026F0002046FEF7EBF920460122BDE810400221FA
:10270000FEF7E4B9000C0140EFF30580002800D08B
:1027100001207047FEF7EEF9FFF721F9FFF720F9E6
:10272000FFF720F9FFF7CAFAFFF7BCF9FFF73AF90C
:10273000FFF70AFAFFF7ECF9FFF7C6FF0A20FEF7EA
:10274000C3F80E480068C16841F01001C160FF2263
:102750000B490A48FFF766F80A480068C16841F06B
:102760001001C1600649FF22FF310648FFF75AF801
:10277000FFF746F900F015F8FEE700003C0F0020D7
:1027800052040020F80E002001460020842900D0C9
:10279000C81C704710B500B9012000F0E5FD00200D
:1027A00010BD10B500F048FE002010BD7FB50D46ED
:1027B00004464169B0F9080081B1A16971B1FFF720
:1027C000E3FFD4E905128DE80700D4E900102B4699
:1027D000226901F088F9039004B070BDFFF7D4FFBF
:1027E00003A9CDE90001208A2B4682B2D4E900106A
:1027F00001F04CF9012801D00020EDE70398EBE748
:102800001CB511C86CB1CDE90004012907D0002026
:1028100013460246012109A001F00AFB1CBD01205C
:10282000F6E70090012907D0002013460246012157
:1028300002A001F0E3FA1CBD0120F6E70000000051
:102840002DE9FC41002507462E4601950C0000D1DC
:102850000124FFF759FF009690B101AB22460921F0
:10286000384601F02DFB012812D1019888B10A49A0
:102870004FF080500860BFF34F8FBFF36F8F08E0B9
:10288000002322460421384601F01AFB012800D01B
:10289000FF252846BDE8FC8104ED00E02DE9F0416C
:1028A000184C0F46054666692068001D00F02CFC98
:1028B00038B9206890F82C1001208840A169814324
:1028C000A161681C07D137B12168BDE8F0410E480D
:1028D000091D00F069BC20683544B5424560216897
:1028E00005D2A068BDE8F041091D00F045BC606854
:1028F000091D00F041FC206B854200D22563BDE834
:10290000F0810000BC020020F41100202DE9F0410C
:10291000054600F055FC2E4C2069401C20612068C3
:102920002C4F10B1E06940B32DE0256020690128EB
:1029300029D1002606EB860007EB800000F00EFC94
:10294000761C072EF6D323488C3000F007FC214874
:10295000A03000F003FC1F48B43000F0FFFB1D481E
:10296000C83000F0FBFB1B48DC3000F0F7FB1948D7
:102970008C3060601430A06005E02068E96AC06AAD
:10298000884200D82560E06A401CE062E96A0120C4
:10299000A26988401043A06101EB810007EB800031
:1029A000291D00F001FC00F02BFCE06900280CD090
:1029B0002068E96AC06A884207D207494FF0805010
:1029C0000860BFF34F8FBFF36F8FBDE8F081000049
:1029D000BC0200201811002004ED00E038B500F022
:1029E000EFFB104CA068C8B90F4800F0B7FB0E48C9
:1029F000143000F0B3FB0C482060143060600A4BC8
:102A000000202833009003F148020C210A2000F036
:102A1000E1FDA06010B105A100F070FCBDE83840F8
:102A200000F0EEBBF802002008120020546D725135
:102A30000000000030B4026C0B46002A0BD0C168C5
:102A40001144C1604468A14201D30168C16030BC37
:102A50001846FDF751BC30BC70472DE9F041856B3D
:102A6000174604460026026C82B1C7B1E068FDF744
:102A700043FCE168206C091AE1602268914202D2AD
:102A80006168081AE060022F16D017E02068A8B924
:102A9000606801F0CBF80646002060600EE0A06898
:102AA000FDF72AFC216CA0680844A0606168884298
:102AB00004D32068A06001E005B16D1E6D1CA56304
:102AC0003046BDE8F08110B5044690F8510058B189
:102AD00001280CD002280FD0502080F31188BFF3BA
:102AE0004F8FBFF36F8FFEE7206B00F09DFB2046FA
:102AF000BDE8104000F098BB10BD000010484FF436
:102B00004061420706D0C01D0D4920F00700411A60
:102B1000C1F540610B4A00230144C2E900030839B2
:102B2000103A21F0070111604B600B600B1AC0E9ED
:102B3000001393604FF000405360D0607047000076
:102B4000F01200201C030020144E154CA6F1C807FB
:102B50004FF08058DFF84C9012E000BF00F030FBDF
:102B6000F068C568281D00F0CFFA2069401E20617A
:102B7000E068401EE06000F043FB2846FFF7A3FF3B
:102B8000E0680028EAD138680128F9D9C9F800803E
:102B9000BFF34F8FBFF36F8FF2E70000E01100200B
:102BA000BC02002004ED00E00346009829B1026059
:102BB000C0E90F31012100F041BD0060F8E72DE9C7
:102BC000F0479A46DDE9098481466FF00303206BE4
:102BD00003EB82021044089D20F00706700707D01F
:102BE000502080F31188BFF34F8FBFF36F8FFEE744
:102BF00023180A5C83F834200A5C12B1401C1028A8
:102C0000F6D3002784F84370072D00D30625E5622C
:102C1000C4E91157201D00F0ACFA04F1180000F0CF
:102C2000A8FA2461C5F107006462A061E76484F832
:102C3000507052464946304600F054FA2060B8F1D0
:102C4000000F01D0C8F80040BDE8F0872DE9F0473B
:102C50001E46DDE9089417460D0080460ED0002C74
:102C600014D0FFF7BBFEC4F80080C4E90657C4E9DE
:102C70000869201DBDE8F04700F07BBA502080F3C2
:102C80001188BFF34F8FBFF36F8FFEE7BDE8F0876A
:102C900030B5114900E011460A688242FBD34B6807
:102CA0005C18844203D14068184448600846436871
:102CB0001C18944209D1084C103C2468A24209D047
:102CC00052681A4442600A6812680260814200D069
:102CD000086030BD0460F9E71C03002070B50024D3
:102CE00041600B4D0061914206D8D11A8269914230
:102CF00006D2011D686807E09A4203D2994201D3C7
:102D0000012403E0011D286800F036FA204670BD5A
:102D1000F802002010B5044600F052FAA06B28B16A
:102D20005FF0000400F06CFA204610BD0124F9E7C2
:102D300030B587B02C4D4EE0049800284BDB069C44
:102D4000606910B1201D00F0DFF902A800F0B8F8AA
:102D5000024604980A283ED2DFE800F00505053D4A
:102D6000263705053D260598A169034601442046FE
:102D7000FFF7B4FF00B3616A20468847E069012885
:102D800029D1002000900598A16900234218194616
:102D9000204601F095F878B9502080F31188BFF3F0
:102DA0004F8FBFF36F8FFEE70598A06128B18118A0
:102DB00013462046FFF792FF0DE0502080F3118864
:102DC000BFF34F8FBFF36F8FFEE794F8280010B961
:102DD000204600F029FA002204A9A86800F080FD2E
:102DE0000028A9D107B030BDF80200202DE9FC4130
:102DF0000F46054600F064FB01A800F061F80446A8
:102E0000019818B100F098FFBDE8FC81224EAFB1E7
:102E100070680068A8B30027291B3A46B06800F024
:102E200081FA00F089FF0028EED11C494FF0805054
:102E30000860BFF34F8FBFF36F8FE5E7A542EBD874
:102E400000F07AFF30682746C068C468201D00F093
:102E50005BF9E069012810D1A0692B4641193A4677
:102E60002046FFF73BFF40B100200346014600909B
:102E70002A46204601F024F820B1616A204688479E
:102E8000C2E707E0502080F31188BFF34F8FBFF3F4
:102E90006F8FFEE70127BFE7F802002004ED00E096
:102EA00006484168096829B14168C968C968496824
:102EB000016370474FF0FF31FAE70000BC020020C9
:102EC00070B5054600F048FE064E0446306984425F
:102ED00003D200F009F8012000E00020286020461D
:102EE000346170BDF8020020F8B5194D1FE0C068CC
:102EF000C4680668201D00F007F9616A204688470B
:102F0000E069012813D1A0693044B04206D9246198
:102F10006060211D286800F02FF908E000200346BA
:102F2000014600903246204600F0CAFF38B12868BA
:102F300001680029DBD16968C5E90010F8BD50209F
:102F400080F31188BFF34F8FBFF36F8FFEE7000050
:102F5000F802002008484068401C4FF0500080F301
:102F6000118804D0BFF34F8FBFF36F8FFEE7BFF31D
:102F70004F8FBFF36F8FFEE724030020074C2068BC
:102F8000016841B1C0680021D0F80000FFF72EFFB2
:102F9000FFF7CEFEF3E701210020F7E7F80200205B
:102FA0002DE9F041044600F00BF994F9455004F185
:102FB000240609E0606A48B1304600F083FE08B19B
:102FC00000F000FA6D1E6DB2002DF3DC4FF0FF36FD
:102FD00084F8456000F014F900F0F2F894F94450D8
:102FE00004F1100709E0206948B1384600F06AFE94
:102FF00008B100F0E7F96D1E6DB2002DF3DC84F826
:103000004460BDE8F04100F0FBB800002DE9F0415C
:103010000546002700F054FA314E306808B9FFF732
:103020006DFDF06805424BD1C5B3083568070ED079
:1030300005F00700C0F108000544680707D05020DC
:1030400080F31188BFF34F8FBFF36F8FFEE72DB36F
:103050007068854234D82248103001460C6801E07F
:1030600020460C466168A94202D221680029F7D1A6
:1030700031688C4224D00768216801606068083795
:10308000411B10290FD96019420708D0502080F346
:103090001188BFF34F8FBFF36F8FFEE710E04160E1
:1030A0006560FFF7F5FD61687068401A7060B2688E
:1030B000904200D2B060F06801430020C4E90001F2
:1030C00000F03AFE780707D0502080F31188BFF354
:1030D0004F8FBFF36F8FFEE73846BDE8F0810000E9
:1030E0000C03002010B5031F4FF080741C601B1FE1
:1030F00021F001011960191F024B0B60143940388F
:103100000A6010BD552F0008D0E9013201699A60AC
:10311000D0E901235A604A68824201D182684A603C
:10312000002202610868401E0860086870470000BD
:10313000034B036003F15400086080201060704767
:1031400050080020044B036003F1540008604FF462
:103150008070106070470000A40A002000F1080190
:103160004FF0FF32C0E90112C1600161002101602E
:10317000704700210161704730B50B685A1C02D0BE
:1031800000F1080202E0026904E022465468256862
:103190009D42FAD953684B6099608A60516008611A
:1031A0000168491C016030BD42684A6093688B60C9
:1031B00093685960916008610168491C016070471B
:1031C000502080F31188BFF34F8FBFF36F8F0A49F0
:1031D0004868401C486001280CD10848006810F07D
:1031E000FF0F07D0502080F31188BFF34F8FBFF33C
:1031F0006F8FFEE7704700002403002004ED00E01D
:103200000849486828B1401E486001D180F3118800
:103210007047502080F31188BFF34F8FBFF36F8F3B
:10322000FEE700002403002070B5002827D0144DCD
:10323000A0F108046168E868014207D1502080F3DA
:103240001188BFF34F8FBFF36F8FFEE722683AB14B
:10325000502080F31188BFF34F8FBFF36F8FFEE7CD
:103260008143616000F02CF9606869680844686017
:103270002046FFF70DFDBDE8704000F05DBD70BD5C
:103280000C0300204FF0E02000210161816105491D
:103290004FF47A720968B1FBF2F1491E41610721CE
:1032A00001617047B802002010B5FCF7D5FF114945
:1032B00010280ED300F1E02090F8F0030A78904235
:1032C00007D2502080F31188BFF34F8FBFF36F8F69
:1032D000FEE709480068896800F4E060884207D981
:1032E000502080F31188BFF34F8FBFF36F8FFEE73D
:1032F00010BD0000240300200CED00E010B5084BC9
:10330000002200BF53F832401CB1521C082AF9D3E6
:1033100010BD43F8321003EBC201486010BD00003D
:10332000D810002070B515460E460446FFF748FF3A
:1033300094F944100020491C01D184F8440094F908
:103340004510491C01D184F84500FFF759FFA06BD7
:1033500028B92A46314604F1240000F051F82046ED
:10336000BDE87040FFF71CBE10B5020014D00F4836
:10337000806B38B1502080F31188BFF34F8FBFF3BB
:103380006F8FFEE700F09CF800211046FFF786FAE9
:1033900000F0D2FC002807D105494FF080500860AA
:1033A000BFF34F8FBFF36F8F10BD0000BC02002032
:1033B00004ED00E002498A6A026049694160704791
:1033C000BC0200200149012048627047BC02002075
:1033D00010B50C4650B1094909681831FFF7CCFE09
:1033E0002046BDE810400121FFF758BA502080F375
:1033F0001188BFF34F8FBFF36F8FFEE7BC02002031
:1034000070B514460D4668B10A4909681831FFF7CE
:10341000CBFE0CB14FF0FF3521462846BDE8704089
:10342000FFF73CBA502080F31188BFF34F8FBFF3F2
:103430006F8FFEE7BC02002030B587B000240394F4
:1034400005AA04A903A80494FFF772FEDDE90301AD
:103450000094CDE90110002315A11748059A00F04A
:1034600042FB164D002868631FD000F0F9FC0128CC
:1034700009D0401C19D1502080F31188BFF34F8F21
:10348000BFF36F8FFEE7502080F31188BFF34F8F9B
:10349000BFF36F8F4FF0FF3028630120E8616C614C
:1034A00007B0BDE8304000F041B807B030BD0000C3
:1034B00049444C4500000000492B0008BC02002094
:1034C0000248816B491C816370470000BC020020E8
:1034D0001448816B11B101214162704700214162A2
:1034E0008169B1FA81F1C1F11F0101EB81020E493D
:1034F00051F822306BB101EB820101F108034A68F7
:1035000052684A609A4201D152684A60D1680160AB
:103510007047502080F31188BFF34F8FBFF36F8F38
:10352000FEE70000BC020020181100201CB526494F
:1035300008780190FF20087008788DF800009DF849
:1035400000009DF8002000F0F000904207D05020CD
:1035500080F31188BFF34F8FBFF36F8FFEE79DF8A5
:1035600000001A4B00F0500018700720986005E02A
:103570009DF8002052008DF80020401E9DF800208C
:103580001206F5D49860032807D0502080F31188E4
:10359000BFF34F8FBFF36F8FFEE74FF4407098601B
:1035A000019808700A48016841F4700101600168DF
:1035B00041F070410160FFF765FE00205860FCF7A4
:1035C00015FE00201CBD000000E400E024030020E4
:1035D00020ED00E038B5049D18B153B1CAB181B1F6
:1035E00020E0502080F31188BFF34F8FBFF36F8F1F
:1035F000FEE7502080F31188BFF34F8FBFF36F8F2A
:10360000FEE7502080F31188BFF34F8FBFF36F8F19
:10361000FEE739B1502080F31188BFF34F8FBFF31D
:103620006F8FFEE748241C46012384F846302B4662
:103630000094FFF7B9FA204638BD000070B50D467A
:10364000040025D0FFF7BCFDD4E90F20216802FB60
:10365000001161600021A1632168A1600A46D4E9DC
:103660000F01401E00FB0121E16021464FF0FF30B9
:1036700001F8440F487004F110008DB1FFF76EFDA2
:1036800004F12400FFF76AFDFFF7BAFD012070BDC9
:10369000502080F31188BFF34F8FBFF36F8FFEE789
:1036A00021690029F0D000F00DFB0028ECD004497E
:1036B0004FF080500860BFF34F8FBFF36F8FE3E789
:1036C00004ED00E02DE9FF4782B01D468A464FF029
:1036D0000008040003D0BAF1000F08D011E0502018
:1036E00080F31188BFF34F8FBFF36F8FFEE7206C1D
:1036F00038B1502080F31188BFF34F8FBFF36F8F25
:10370000FEE7022D0AD1E06B012807D0502080F39C
:103710001188BFF34F8FBFF36F8FFEE700F00EFAF3
:103720003F4F4FF000094FF0805648B9049838B128
:10373000502080F31188BFF34F8FBFF36F8FFEE7E8
:10374000FFF73EFDA06BE16B884207D3022D05D049
:103750000498D0B1B8F1000F1AD01EE02A465146A5
:103760002046FFF77AF9616A19B104F1240000F0EC
:10377000A9FA20B13E60BFF34F8FBFF36F8FFFF701
:103780003FFD012006B0BDE8F087FFF739FD22E0DC
:103790006846FFF70FFE4FF00108FFF731FDFFF716
:1037A0008FFEFFF70DFD94F94400401C01D184F811
:1037B000449094F94500401C01D184F84590FFF7EE
:1037C0001FFD04A9684600F027F930B12046FFF735
:1037D000E7FB00F0B1FA0020D4E7FFF7F1FCA06BA3
:1037E000E16B884213D1FFF70BFD04F1100004993F
:1037F000FFF7EEFD2046FFF7D3FB00F09DFA00280F
:103800009ED13E60BFF34F8FBFF36F8F98E7FFF7F6
:10381000F7FC2046FFF7C4FB00F08EFA90E70000AB
:1038200004ED00E02DE9F0471F469046894604006C
:1038300003D0B9F1000F08D011E0502080F31188B7
:10384000BFF34F8FBFF36F8FFEE7206C38B150206E
:1038500080F31188BFF34F8FBFF36F8FFEE7022F06
:103860000AD1E06B012807D0502080F31188BFF304
:103870004F8FBFF36F8FFEE7FFF716FD5020EFF37A
:10388000118680F31188BFF34F8FBFF36F8FA06B4A
:10389000E16B884206D3022F04D0002086F3118802
:1038A000BDE8F08794F945503A4649462046FFF76F
:1038B000D4F8681C04D06D1C84F845500120EDE755
:1038C000606A0028FAD004F1240000F0FBF9002817
:1038D000F4D0B8F1000FF1D00121C8F80010EDE7E5
:1038E0002DE9F747002683B08A46040003D0BAF1D9
:1038F000000F08D011E0502080F31188BFF34F8FE4
:10390000BFF36F8FFEE7206C38B1502080F3118831
:10391000BFF34F8FBFF36F8FFEE700F00FF9DFF8B3
:10392000F4804FF000094FF0805748B9059838B13E
:10393000502080F31188BFF34F8FBFF36F8FFEE7E6
:10394000FFF73EFCA56BC5B151462046FFF772F864
:103950006D1EA563206950B104F1100000F0B2F9AA
:1039600028B1C8F80070BFF34F8FBFF36F8FFFF718
:1039700047FC012006B0BDE8F087059808B11EB1EC
:1039800006E0FFF73DFC27E06846FFF713FD012640
:10399000FFF736FCFFF794FDFFF712FC94F94400A3
:1039A000401C01D184F8449094F94500401C01D199
:1039B00084F84590FFF724FC05A9684600F02CF830
:1039C000002820460AD0FFF7EBFA00F0B5F92046B0
:1039D000FFF7A0F90028B3D00020CBE7FFF79AF952
:1039E00090B104F124000599FFF7F2FC2046FFF79F
:1039F000D7FA00F0A1F90028A2D1C8F80070BFF3EF
:103A00004F8FBFF36F8F9BE72046FFF7C9FA00F097
:103A100093F995E704ED00E02DE9F0410C4605002F
:103A200011D0C4B1FFF7CCFB174B5A696E68206800
:103A3000911B471C17D02F689B6A9F4219D0964252
:103A400017D8012410E0502080F31188BFF34F8F66
:103A5000BFF36F8FFEE7502080F31188BFF34F8FC5
:103A6000BFF36F8FFEE70024FFF7CAFB2046BDE8D7
:103A7000F081884205D9401A20602846FFF79AFC59
:103A8000F1E700202060DCE7BC0200202DE9FF5FA9
:103A90008346DDE90E87994616468A469000FFF771
:103AA000B5FA05001CD05420FFF7B0FA040014D07A
:103AB0000020256384F85100CDE90240CDE900875C
:103AC0004B46324651465846FFF779F82046FEF7F6
:103AD0001DFF012004B0BDE8F09F2846FFF7A4FBBE
:103AE0004FF0FF30F6E7F0B585B0DDE90B640A9DD5
:103AF000A6B1DCB1542700972663022684F85160F2
:103B0000002604AFCDE90246CDE90057FFF757F88C
:103B10002046FEF7FBFE049805B0F0BD502080F370
:103B20001188BFF34F8FBFF36F8FFEE7502080F3F4
:103B30001188BFF34F8FBFF36F8FFEE70548C16950
:103B400019B1806B18B10020704701207047022026
:103B500070470000BC020020014840697047000027
:103B6000BC0200202DE9F0412E4C0027A06B40B193
:103B7000206A401C2062606A00B101273846BDE817
:103B8000F0816669761C666113D16068006838B19F
:103B9000502080F31188BFF34F8FBFF36F8FFEE784
:103BA0006068A1686160A060A06A401CA062FFF725
:103BB00077F9206BDFF87080864209D3606800686F
:103BC00080B16068C068C568686886420DD22063AD
:103BD0002068C06A00EB800158F821000128CAD98A
:103BE0000127C8E74FF0FF30F1E7281DFFF78CFAF7
:103BF000A86A18B105F11800FFF786FAE86A0121F2
:103C0000A26981401143A16100EB800108EB8100B2
:103C1000291DFFF7C9FAE86A2168C96A8842CDD32D
:103C20000127CBE7BC0200201811002070B504006A
:103C30004FF0000140D0214D2868844207D0502029
:103C400080F31188BFF34F8FBFF36F8FFEE7A06C37
:103C500038B1401EA064636CE26A9A422CD040B135
:103C60002AE0502080F31188BFF34F8FBFF36F8F8E
:103C7000FEE7201DFFF748FA114A012150B9E06A1A
:103C800000EB800352F8233023B9AB6901FA00F04E
:103C90008343AB61606CE062C0F10700A061E06A41
:103CA000AB6981401943A96100EB800002EB800001
:103CB000211DFFF779FA0121084670BDBC020020E2
:103CC000181100202DE9F041C068C468ACB104F1BE
:103CD00018000746FFF718FA154DA86B0126A0B18A
:103CE00039461448FFF760FAE06A2968C96A8842D1
:103CF0001CD901206E62BDE8F081502080F311884C
:103D0000BFF34F8FBFF36F8FFEE7201DFFF7FCF966
:103D1000E16AAA6906FA01F01043A86101EB81008B
:103D20000449B43901EB8000211DDBE70020E2E704
:103D3000BC020020CC1100202DE9F0472C4D0024BE
:103D40002746A86B38B1FFF73BFAA86B401EA86363
:103D5000A86B40B146E0502080F31188BFF34F8F2D
:103D6000BFF36F8FFEE72969224E0120D1B3A6F180
:103D7000B40980463068E8B1F068C46804F11800FE
:103D8000FFF7C2F9201DFFF7BFF9E06AAA6908FA38
:103D900000F11143A96100EB800109EB8100211DB5
:103DA000FFF702FAE06A2968C96A8842E2D3C5F8D7
:103DB0002480DFE70CB1FFF773F82C6A44B1464664
:103DC000FFF7D0FE00B16E62641EF9D100202862B8
:103DD000686A38B10849012738070860BFF34F8F78
:103DE000BFF36F8FFFF70CFA3846BDE8F08700008D
:103DF000BC020020CC11002004ED00E02DE9FC47BE
:103E000081461E46174688462C200A9DFFF7FEF87D
:103E100004000AD0CDE9005433463A4641464846AC
:103E2000FEF714FF002084F828002046BDE8FC8738
:103E30007CB52C26DDE90654009644B1CDE900544A
:103E4000FEF704FF012084F8280020467CBD5020A6
:103E500080F31188BFF34F8FBFF36F8FFEE7000031
:103E600010B586B0FEF7BAFD114CA068B8B10020BD
:103E70000390049005AA04A903A8FFF763F9DDE9FC
:103E8000032102208DE8070000230AA10B48059AB0
:103E9000FFF729FEE06010B106B0012010BD5020F0
:103EA00080F31188BFF34F8FBFF36F8FFEE70000E1
:103EB000F8020020546D7220537663007D2F0008B5
:103EC000FEB51E4613460200089D4FF0000014D0B8
:103ED000124CA768002F0FD0CDE9001302920629DB
:103EE00015DAFFF72BFE02284FF000030DD0002259
:103EF0006946A068FFF7E6FBFEBD502080F31188FD
:103F0000BFF34F8FBFF36F8FFEE72A46F0E7002322
:103F1000324669463846FFF785FCFEBDF8020020B0
:103F20007D05000800000000890500080000000071
:103F30009505000800000000A10500080000000031
:103F4000AD05000800000000B905000800000000F1
:103F5000843F0008831C00080000000000000000EF
:103F600080000000000000000000000000000000D1
:103F70000000000001020304060708090000000019
:103F80000102030464656661756C745461736B00AF
:103F9000B03F0008000000203003000028010008A6
:103FA0002041000830030020202200008401000886
:103FB0001AFF01145A5C0C13C00513CCA54302A2CE
:103FC0003402A2223301A42A030F31121012084531
:103FD0000204271079331932490C120D2BC0033F0C
:103FE00012068A1221121483C006191C0115280812
:103FF000C1814001C0804104690C2908E918A91C4D
:10400000091A30091638093660092E70092F600028
:10401000FF00C0C101C30302C2C60607C705C5C46D
:1040200004CC0C0DCD0FCFCE0E0ACACB0BC909089C
:10403000C8D81819D91BDBDA1A1EDEDF1FDD1D1CDC
:10404000DC14D4D515D71716D6D21213D311D1D06C
:1040500010F03031F133F3F23236F6F737F535340C
:10406000F43CFCFD3DFF3F3EFEFA3A3BFB39F9F8DC
:104070003828E8E929EB2B2AEAEE2E2FEF2DEDEC7C
:104080002CE42425E527E7E62622E2E323E12120AC
:10409000E0A06061A163A3A26266A6A767A56564AC
:1040A000A46CACAD6DAF6F6EAEAA6A6BAB69A9A81C
:1040B0006878B8B979BB7B7ABABE7E7FBF7DBDBC5C
:1040C0007CB47475B577B7B67672B2B373B17170EC
:1040D000B05090915193535292965657975595944C
:1040E000549C5C5D9D5F9F9E5E5A9A9B5B9959585C
:1040F00098884849894B8B8A4A4E8E8F4F8D4D4CFC
:104100008C4484854587474686824243834181802B
:10411000022F4032018210036D24F41AAA014100DB
:04000005080000ED02
:00000001FF
